:100000000C942A000C9447000C9447000C94470071
:100010000C9447000C9447000C9447000C94470044
:100020000C9447000C9447000C9447000C94CB07A9
:100030000C9447000C9447000C9447000C94470024
:100040000C9447000C9447000C9447000C94470014
:100050000C94470011241FBECFE5D8E0DEBFCDBF12
:1000600011E0A0E6B0E0E2E0F0E102C005900D9200
:10007000AE3AB107D9F721E0AEEAB1E001C01D9276
:10008000A13DB207E1F70E9446070C94FF070C94CC
:10009000000084B3806484BB87B3806887BB85B36A
:1000A0008F7B85BB88B38F7788BB089585B38064C9
:1000B00085BB089585B38F7B85BB089588B3806821
:1000C00088BB089588B38F7788BB089581B3877FF5
:1000D00081BB81B38F7D81BB81B38F7B81BB81B3BA
:1000E0008F7781BB84B3846084BB84B3886084BB16
:1000F00084B3806184BB84B3806284BB82B3886034
:1001000082BB82B3806282BB82B3806482BB82B3D3
:10011000806882BB0895CF93CFEFE5E062C085B3DE
:100120008C6385BB25B36E2F70E081E090E00E2ECE
:1001300002C0880F991F0A94E2F78095822385BB3D
:1001400087E04BC0843009F4815020B3482F50E041
:1001500030E0082E02C0359527950A94E2F720FD7D
:100160003BC02FEF3BED95E0215030409040E1F750
:1001700000C0000020B330E0082E02C0359527955E
:100180000A94E2F720FD28C0833099F485E090E0DE
:10019000861B970B26E030E0241B350B880F991F38
:1001A000880F991F805A9F4FDC01A20FB31FCC917B
:1001B00017C085E090E0861B970B27E030E0241BFA
:1001C000350B880F991F880F991F805A9F4FDC01AC
:1001D000A20FB31FCC9104C08150843008F0B2CF7D
:1001E000E150E23008F09BCFCF3F09F496CF0E9458
:1001F00056002FEF36E781E0215030408040E1F794
:1002000000C000000E945A009FEF23EC39E091509B
:1002100020403040E1F700C000008C2FCF910895BE
:100220009BB3977F9BBB98B3987E98BB282F229552
:100230002F70922F9870492F50E0440F551F277050
:10024000422B98B3492B48BB9BB39B7F9BBB9BB373
:1002500094609BBBEFE9FFE03197F1F700C000002D
:100260009BB39B7F9BBB98B3987E98BB982F98704D
:10027000292F30E0220F331F8770282B88B3282BBB
:1002800028BB8BB38B7F8BBB8BB384608BBB8FE91D
:100290009FE00197F1F700C000008BB38B7F8BBB11
:1002A000EFE1FEE43197F1F700C0000008958AB352
:1002B00088608ABB8AB384608ABB87B3816087BB4E
:1002C00087B3826087BB87B3846087BB87B3806155
:1002D00087BB8FE59AEE0197F1F700C0000082E03E
:1002E0000E94100188E20E9410018CE00E9410011F
:1002F00081E00E94100180E80E94100108959BB3E4
:1003000098609BBB98B3987E98BB282F22952F703E
:10031000922F9870492F50E0440F551F2770422BA1
:1003200098B3492B48BB9BB39B7F9BBB9BB394600B
:100330009BBBEFE9FFE03197F1F700C000009BB3F2
:100340009B7F9BBB98B3987E98BB982F9870292F62
:1003500030E0220F331F8770282B88B3282B28BB4F
:100360008BB38B7F8BBB8BB384608BBB8FE99FE0A0
:100370000197F1F700C000008BB38B7F8BBBEFE1DF
:10038000FEE43197F1F700C000000895CF93DF93AA
:10039000EC0103C021960E947F0188818111FACF70
:1003A000DF91CF910895662329F0613011F4805CCC
:1003B00001C080E080680E9410010895CF92DF9212
:1003C000EF92FF920F931F93CF93DF93F82E162F88
:1003D000D42FC22F81E00E94100160E085E00E94CE
:1003E000D3018091AE019091AF01009729F486E787
:1003F00090E00E94C60106C0019721F480E790E0DA
:100400000E94C60161E080E00E94D3018F2D0E940E
:100410007F01812F0E947F018AE30E947F018D2F3F
:100420000E947F018C2F0E947F018AE30E947F013E
:10043000802F0E947F018E2D0E947F0181E3C816CC
:10044000D10421F480E50E947F0103C081E40E9471
:100450007F018DE40E947F01DF91CF911F910F9169
:10046000FF90EF90DF90CF900895CF92DF92EF92C0
:10047000FF920F931F931092B3011092B20110924A
:10048000BF011092BE011092BD011092BC011092EA
:10049000BB011092BA011092B9011092B8011092EA
:1004A000B7011092B6011092B5011092B40181E02B
:1004B0000E9410010E948B0020ED280F223008F0CE
:1004C00058C099279093BD018093BC018091BC01D5
:1004D0009091BD010E947F0181E00E941001C090B7
:1004E000B201D090B301E090B601F090B701009155
:1004F000B4011091B5012091BA013091BB01409136
:10050000B8015091B9016091BE017091BF01809115
:10051000BC019091BD010E94DE010E948B002FEC76
:10052000280F293068F42091BC013091BD0120339F
:10053000310531F499279093BF018093BE012AC001
:1005400020ED280F233068F42091BC013091BD01CB
:100550002133310531F499279093BF018093BE0177
:1005600019C081E00E9410018BE790E00E94C60153
:10057000B3CF81E00E94100185EA90E00E94C6019D
:100580002FEF8BE49DE1215080409040E1F700C0C7
:1005900000008DCF81E00E941001C090B201D09088
:1005A000B301E090B601F090B7010091B401109151
:1005B000B5012091BA013091BB014091B801509131
:1005C000B9016091BE017091BF018091BC01909111
:1005D000BD010E94DE010E948B0020ED280F263015
:1005E00008F043C099279093B9018093B80181E046
:1005F0000E941001C090B201D090B301E090B6010A
:10060000F090B7010091B4011091B5012091BA01A9
:100610003091BB014091B8015091B9016091BE0188
:100620007091BF018091BC019091BD010E94DE01DB
:100630000E948B0020ED280F2A3030F499279093E8
:10064000BB018093BA0122C081E00E9410018FECAF
:1006500090E00E94C6012FEF8BE49DE12150804085
:100660009040E1F700C00000C2CF81E00E9410017D
:100670008BEF90E00E94C6012FEF8BE49DE12150AB
:1006800080409040E1F700C0000084CF81E00E94EC
:100690001001C090B201D090B301E090B601F0908B
:1006A000B7010091B4011091B5012091BA013091C8
:1006B000BB014091B8015091B9016091BE017091A8
:1006C000BF018091BC019091BD010E94DE010E949A
:1006D0008B0020ED280F2630D0F599279093B50197
:1006E0008093B40181E00E941001C090B201D090CB
:1006F000B301E090B601F090B7010091B401109100
:10070000B5012091BA013091BB014091B8015091DF
:10071000B9016091BE017091BF018091BC019091BF
:10072000BD010E94DE010E948B0020ED280F2A30BF
:1007300030F499279093B7018093B60110C081E0FF
:100740000E94100187E291E00E94C601CBCF81E0B8
:100750000E94100183E591E00E94C60197CF81E0DD
:100760000E941001C090B201D090B301E090B60198
:10077000F090B7010091B4011091B5012091BA0138
:100780003091BB014091B8015091B9016091BE0117
:100790007091BF018091BC019091BD010E94DE016A
:1007A0000E948B0020ED280F223070F4803331F44A
:1007B00099279093B3018093B2011BC0992790931E
:1007C000B3018093B20115C081E00E94100160E086
:1007D00080E00E94D3018FE791E00E94C6012FEFD5
:1007E0008BE49DE1215080409040E1F700C0000083
:1007F000B6CFC090B201D090B301E090B601F090B6
:10080000B7010091B4011091B5012091BA01309166
:10081000BB014091B8015091B9016091BE01709146
:10082000BF018091BC019091BD010E94DE011F912A
:100830000F91FF90EF90DF90CF900895CF92DF92CD
:10084000EF92FF920F931F9381E090E09093B1019C
:100850008093B00180E390E09093C1018093C00148
:100860009093CD018093CC019093CB018093CA01EA
:100870009093C9018093C8019093C7018093C601EA
:100880009093C5018093C4019093C3018093C201EA
:1008900081E00E9410010E948B0020ED280F223081
:1008A00008F052C099279093CB018093CA0181E050
:1008B0000E941001C090C001D090C101E090C4011D
:1008C000F090C5010091C2011091C3012091C801AF
:1008D0003091C9014091C6015091C7016091CC018E
:1008E0007091CD018091CA019091CB010E94DE01EF
:1008F0000E948B002FEC280F293068F42091CA0148
:100900003091CB012033310531F499279093CD01FB
:100910008093CC0121C020ED280F233068F4209172
:10092000CA013091CB012133310531F499279093DD
:10093000CD018093CC0110C081E00E9410018BE7B3
:1009400090E00E94C601B3CF81E00E94100185EAC9
:1009500090E00E94C6019CCF81E00E941001C090EF
:10096000C001D090C101E090C401F090C501009198
:10097000C2011091C3012091C8013091C901409179
:10098000C6015091C7016091CC017091CD01809159
:10099000CA019091CB010E94DE010E948B0020EDE4
:1009A000280F2630D0F599279093C7018093C60170
:1009B00081E00E941001C090C001D090C101E09080
:1009C000C401F090C5010091C2011091C3012091B2
:1009D000C8013091C9014091C6015091C701609191
:1009E000CC017091CD018091CA019091CB010E9400
:1009F000DE010E948B0020ED280F2A3030F4992769
:100A00009093C9018093C80110C081E00E94100139
:100A10008FEC90E00E94C601CBCF81E00E941001D4
:100A20008BEF90E00E94C60197CF81E00E941001F9
:100A3000C090C001D090C101E090C401F090C50108
:100A40000091C2011091C3012091C8013091C901E8
:100A50004091C6015091C7016091CC017091CD01C8
:100A60008091CA019091CB010E94DE010E948B000F
:100A70008C0180ED800F8630E8F581E00E94100146
:100A800011271093C3010093C20181E00E9410015D
:100A9000C090C001D090C101E090C401F090C501A8
:100AA0000091C2011091C3012091C8013091C90188
:100AB0004091C6015091C7016091CC017091CD0168
:100AC0008091CA019091CB010E94DE010E948B00AF
:100AD00020ED280F2A3030F499279093C501809398
:100AE000C40110C081E00E94100187E291E00E94E1
:100AF000C601CBCF81E00E94100183E591E00E9406
:100B0000C60193CF81E00E941001C090C001D09037
:100B1000C101E090C401F090C5010091C2011091A3
:100B2000C3012091C8013091C9014091C601509183
:100B3000C7016091CC017091CD018091CA01909163
:100B4000CB010E94DE010E948B0020ED280F223095
:100B500070F4803331F499279093C1018093C001E0
:100B600012C099279093C1018093C0010CC081E00D
:100B70000E94100160E080E00E94D3018FE791E0C5
:100B80000E94C601BFCFC090C001D090C101E090CB
:100B9000C401F090C5010091C2011091C3012091E0
:100BA000C8013091C9014091C6015091C7016091BF
:100BB000CC017091CD018091CA019091CB010E942E
:100BC000DE011F910F91FF90EF90DF90CF9008957D
:100BD000CF92DF92EF92FF920F931F930197F9F458
:100BE000C090C001D090C101E090C401F090C50157
:100BF0000091C2011091C3012091C8013091C90137
:100C00004091C6015091C7016091CC017091CD0116
:100C10008091CA019091CB010E94DE011EC0C0905C
:100C2000B201D090B301E090B601F090B70100910D
:100C3000B4011091B5012091BA013091BB014091EE
:100C4000B8015091B9016091BE017091BF018091CE
:100C5000BC019091BD010E94DE011F910F91FF9098
:100C6000EF90DF90CF9008958091B6019091B701F9
:100C700001969093B7018093B6018091B60190914F
:100C8000B701CA9708F4A2C080E390E09093B7013F
:100C90008093B6018091B4019091B5010196909333
:100CA000B5018093B4018091B4019091B501C697CC
:100CB00008F48CC080E390E09093B5018093B40178
:100CC0008091BA019091BB0101969093BB018093F2
:100CD000BA018091BA019091BB01CA9708F476C01D
:100CE00080E390E09093BB018093BA018091B801BA
:100CF0009091B90101969093B9018093B8018091C8
:100D0000B8019091B901C69708F460C080E390E003
:100D10009093B9018093B8018091BE019091BF0179
:100D200001969093BF018093BE018091BE01909186
:100D3000BF01CA9798F08091BC019091BD01C09706
:100D400069F480E390E09093BF018093BE0181E35A
:100D500090E09093BD018093BC0138C08091BC01AC
:100D60009091BD01C197D1F48091BE019091BF01D6
:100D7000C297A1F48091B2019091B301C09739F468
:100D800081E390E09093B3018093B2011FC080E3B0
:100D900090E09093B3018093B20118C08091BE019E
:100DA0009091BF01C39790F08091BC019091BD01DB
:100DB000C19761F481E390E09093BF018093BE01FD
:100DC00080E390E09093BD018093BC018091AE01DF
:100DD0009091AF010E94E8058091B0019091B1011E
:100DE000892B09F452C02091BE013091BF0180913E
:100DF000CC019091CD012817390709F046C0209108
:100E0000BA013091BB018091C8019091C9012817A6
:100E10003907D9F52091B6013091B7018091C4010D
:100E20009091C5012817390781F52091BC013091B7
:100E3000BD018091CA019091CB012817390729F58E
:100E40002091B8013091B9018091C6019091C701FC
:100E500028173907D1F42091B4013091B501809160
:100E6000C2019091C3012817390779F42091B2018A
:100E70003091B3018091C0019091C10128173907C9
:100E800021F40E9456000E945E0008950E945701BE
:100E90000E9466000E94BB070E94490084E396E01E
:100EA0000E94C60760E085E00E94D30183EA91E0DA
:100EB0000E94C6010E943502C0E0D0E00E948B0073
:100EC000883719F40E943502F9CF8D3299F42097B2
:100ED00089F42091AE013091AF01232B59F481E0C8
:100EE00090E09093AF018093AE010E941E04C1E098
:100EF000D0E0E4CF8D3289F4C130D10539F02091B2
:100F0000AE013091AF012130310539F41092AF01BB
:100F10001092AE01C0E0D0E0D1CF8B3229F40E9414
:100F20005A000E946200CACF8D3341F681E090E002
:100F30009093AF018093AE01C090C001D090C101E9
:100F4000E090C401F090C5010091C2011091C3016D
:100F50002091C8013091C9014091C6015091C7014B
:100F60006091CC017091CD018091CA019091CB012B
:100F70000E94DE01A3CF87EF82BF89B7816089BF5E
:100F800085E883BF8FB780688FBF08959093D001A5
:100F90008093CF0108951F920F920FB60F921124E4
:100FA0002F933F934F935F936F937F938F939F9371
:100FB000AF93BF93EF93FF938091CE018F5F8093A8
:100FC000CE018E3359F41092CE0187EF82BFE091AB
:100FD000CF01F091D001309709F00995FF91EF9181
:100FE000BF91AF919F918F917F916F915F914F9141
:100FF0003F912F910F900FBE0F901F901895F8946E
:02100000FFCF20
:101002003738392F343536783132332D63303D2B32
:10101200416C61726D2054696D6500506C6561733D
:101022006520456E74657220636F72726563742009
:101032006E756D62657220746F2073657420686FBF
:101042007572212100506C6561736520456E74656F
:10105200722030206F7220312020746F20736574EB
:1010620020686F757227732074656E73212100509A
:101072006C6561736520456E74657220636F727270
:10108200656374206E756D62657220746F2073657E
:1010920074206D696E757465212100506C656173F1
:1010A2006520456E746572203020746F20352020D3
:1010B200746F20736574206D696E75746527732073
:1010C20074656E73212100506C6561736520456EF5
:1010D20074657220636F7272656374206E756D62DF
:1010E200657220746F20736574207365636F6E641C
:1010F200212100506C6561736520456E7465722014
:101102003020746F20352020746F20736574207333
:1011120065636F6E6427732074656E7321210050BE
:101122006C656173652070726573732027302720A8
:10113200746F20414D206F722027312720746F2059
:0E114200504D005345542054696D6521210025
:00000001FF
